:020000040800F2
:1000000048E80020FD040008990400089B0400084B
:100010009F040008A3040008A704000800000000D3
:100020000000000000000000000000006501000862
:10003000AD04000800000000A901000847550008B1
:100040001705000817050008170500081705000820
:100050001705000817050008170500081705000810
:100060001705000817050008170500081705000800
:1000700017050008170500081705000817050008F0
:1000800017050008170500081705000817050008E0
:100090001705000817050008170500085133010867
:1000A00017050008170500081705000817050008C0
:1000B00000000000170500081705000817050008D4
:1000C00017050008170500081705000817050008A0
:1000D000170500083F070008BD06000817050008BF
:1000E00017050008170500081705000800000000A4
:1000F0000000000000000000000000000000000000
:1001000000000000000000001705000817050008A7
:10011000170500081705000817050008170500084F
:10012000170500081705000817050008170500083F
:1001300017050008B3040008170500081705000894
:10014000170500081705000817050008170500081F
:10015000DFF80CD013F0FCFD0048004787020008D0
:1001600048E80020224B19680868B0E8F00F80F3D7
:100170000988BFF36F8F4FF0000080F311884EF0B5
:100180000D0E70470000000006480068006880F30C
:10019000088862B661B6BFF34F8FBFF36F8F00DF81
:1001A00000BF00BF08ED00E0EFF30980BFF36F8FE1
:1001B0000F4B1A6820E9F00F106008B54FF0BF0030
:1001C00080F31188BFF34F8FBFF36F8F04F005F8F2
:1001D0004FF0000080F31188BDE8084019680868F6
:1001E000B0E8F00F80F30988BFF36F8F704700BF4E
:1001F00040000020EFF30580704700000C462146C8
:1002000036A013F083FE00BFFEE7704710B504462A
:1002100039A013F07BFE3EA013F078FE00F08CFBBB
:1002200046A013F073FE47A013F070FE13F05DF8C4
:1002300042A013F06BFE4AA013F068FE10F075FBAD
:100240003EA013F063FE4CA013F060FE11F0B2F973
:100250003AA013F05BFE50A013F058FE11F0A6FA7E
:1002600036A013F053FE53A013F050FE11F03FF9E7
:1002700032A013F04BFE56A013F048FE564800681B
:1002800003F0F6FC10BD1CB5012080F3108800BF00
:1002900000F0D3FC00F05EFA50A013F037FE50A03F
:1002A00013F034FE5BA013F031FE67A013F02EFEB6
:1002B0004BA013F02BFE71A013F028FE11F025F8CF
:1002C000454800210B466422CDE900106DA171481C
:1002D00003F080FC04F01CF900201CBD7461736BFA
:1002E0003A257320737461636B206F766572666C58
:1002F0006F77210A0000000073797374656D2068C0
:1003000061726477617265204F4B20210D0A0000F5
:10031000657468206861726477617265206F6B0D27
:100320000A7374617274696E67204C774950207348
:100330007461636B2E2E2E20000000006F6B200D69
:100340000A0000007374617274696E672049326339
:1003500020627573207461736B2E2E2E20000000B6
:100360007374617274696E67204D515454207461C6
:10037000736B2E2E2E2000007374617274696E6789
:10038000206461746120636F6C6C656374207461B8
:10039000736B2E2E2E200000696E6974206C6F67BF
:1003A000676572204D616E6167656D656E742E2E96
:1003B0002E2000007374617274696E6720436F6E43
:1003C000666967207461736B2E2E2E20000000007A
:1003D0005B65496F545D000000000020230D0A009A
:1003E00023232323232323232323232323232323DD
:1003F00023232323232323232323232323232323CD
:100400002323232323232323232323232323230DD2
:100410000A00000023232020202065494F54206734
:100420006174657761792D2D77656C636F6D6520DB
:10043000746F2065496F5420202020202020202028
:100440002023230D0A00000023232020202076658E
:100450007273696F6E203A20302E312E38202020A2
:10046000202020202020202020202020202020208C
:10047000202020202023230D0A0000000D0A0D0A51
:1004800000000000765461736B53797374656D4995
:100490006E6974000D020008704700BFFEE700BFE0
:1004A000FEE700BFFEE700BFFEE7704770477047FA
:1004B000704708B500200090402005F09BFE012801
:1004C00004D169460B48006803F0CBF9402005F0E1
:1004D000A8FE4FF4803005F0A4FE009848B10098C3
:1004E00038B14FF0805004490860BFF34F8FBFF31D
:1004F0006F8F08BD9001002004ED00E006488047A2
:1005000006480047FEE7FEE7FEE7FEE7FEE7FEE7F8
:10051000FEE7FEE7FEE7FEE7753000085101000840
:1005200070B588B005460C4600220121204602F035
:10053000F7FE8349086000220121601C02F0F0FEF2
:10054000804908607E480068002868D00846006836
:10055000002864D00121084601F08FFB01214804E6
:1005600001F098FB0121202001F087FB01210820E8
:1005700001F0E9F82020ADF8080018208DF80B00F4
:1005800003208DF80A0002A96F4801F00DF8402001
:10059000ADF8080004208DF80B0003208DF80A0048
:1005A00002A9694801F000F804950020ADF8140094
:1005B000ADF81600ADF81800ADF81C000C20ADF831
:1005C0001A000020ADF80000ADF802004FF40070F2
:1005D000ADF804000020ADF8060004A95B4802F065
:1005E00002FB6946594802F073FB012240F2255193
:1005F000564802F090FB26208DF80C000F208DF855
:100600000D0000208DF80E0001208DF80F0003A8CA
:1006100000F095FB01214D4802F071FB00E000263F
:10062000304608B070BD2DE9F04107460D4616462C
:100630001C46012C0CD10023324629464048006854
:1006400002F0F7FF10B10120BDE8F0810020FBE7C8
:100650000020F9E72DE9FF41074615461C46002614
:10066000012C11D100232A4601A93648006802F066
:10067000FFFE012807D10126012240F227713348ED
:1006800002F049FB00E00026304604B0BDE8F081EE
:100690002DE9F04106460D4690461F462C4607E0E0
:1006A00094F900103B4600223046FFF7D3FF641C4C
:1006B00020780028F4D1BDE8F08170471CB50020F7
:1006C000019040F22771214802F00AFC012813D161
:1006D00001AA69461B48006803F0FFF8012805D10C
:1006E0009DF80010194802F077FB05E0002240F267
:1006F0002771164802F00FFB40F22551134802F013
:10070000EFFB012810D1114802F06AFBC0B2009043
:100710009DF800100D4802F05FFB002301AA694616
:100720000748006803F05AF8019838B14FF080503C
:1007300007490860BFF34F8FBFF36F8F1CBD704731
:100740000C00002010000020001401400044004074
:1007500004ED00E010B580214FF4E130FFF7E0FE3A
:100760007049086010BD70B504460D460A2C0AD1C8
:100770000D216D4802F030FB00BF6B48008810F07F
:10078000800FFAD01AE0082C14D10821664802F034
:1007900023FB00BF6448008810F0800FFAD02021AE
:1007A000614802F019FB00BF5F48008810F0800F1D
:1007B000FAD003E00D2C01D1204670BDE1B25A48B9
:1007C00002F00AFB00BF5848008810F0800FFAD0F2
:1007D0002046F2E770B505465C21284612F086FFF8
:1007E00004460CB9284670BD601C0446FBE700BFF8
:1007F000FEE70120FFF7FBFF04460D461646334691
:100800002A46214649A013F081FBFFF7F2FF30B5DD
:10081000014600230022002409B9002030BD29E050
:1008200008782E280ED10AB90020F7E7581CC0B26C
:100830000346042801D10020F0E7002004460246C8
:10084000491C17E00878302802DB0878392801DDD8
:100850000020E3E7087804EB840500EB450030381E
:10086000C0B20446FF2801DD0020D7E7501CC2B209
:10087000491C00BF08780028D2D1032B00D0CDE757
:100880000AB90020CAE70120C8E770B504460D4642
:10089000264600211FE0002315E03278761C302A1E
:1008A00008DB392A06DC03EB83004300A2F13000A9
:1008B000034408E0032901DA2E2A01D0032900D1DC
:1008C00002E0002070BDE8E700BFFF2B01DD002043
:1008D000F8E76B54491C0429DDDB0120F2E710B571
:1008E0000246002017E0302904DB392902DCA1F19F
:1008F00030030EE0412904DB462902DCA1F1370375
:1009000007E0612904DB662902DCA1F1570300E05E
:1009100005E043EA001012F8011B0029E3D100BFF3
:1009200010BD0000140000200044004025732C205E
:1009300025732C2025640A0000B587B000210846E5
:100940000EF02DFE03A810F0C7FD9DF80F00010664
:100950009DF80E0041EA00419DF80D0041EA00209B
:100960009DF80C10084306906FF07F4005909DF8AD
:100970000E004FF0807141EA00419DF80D0041EA00
:1009800000209DF80C10084304900A480A490022F0
:1009900004ABCDE90021029005AA06A9074807F09B
:1009A00034FA064807F071FA044807F0DBFA07B09A
:1009B00000BD0000FFF3000885030108E8010020E6
:1009C00010B5002807DA0A07140ED34A00F00F0307
:1009D0001B1FD45403E00A07130ED04A135410BD52
:1009E00000B5AFB0012000F014FF4FF4004000F05C
:1009F000E6FF012000F0ECFF00BF3D2000F06AFFA1
:100A00000028FAD00B2001F07FF904F0ADFE05F0CC
:100A1000E0FB00BF05F0E4FB0128FBD0684605F0D1
:100A20001FF801200090002007904FF400700A90FA
:100A300000200B900E901190139014901590209020
:100A40004FF00070219000112390002025902690F7
:100A500004202890C005299040122A9080012B90F4
:100A600040122C9040002E900121684604F0E2FED6
:100A70000121AB4805F0ECFB2FB000BD08B5042008
:100A8000ADF8000003208DF8020018208DF8030057
:100A90006946A44800F088FD0620ADF80000032058
:100AA0008DF8020018208DF8030069469E4800F07A
:100AB0007BFD43F62010ADF8000003208DF8020006
:100AC00018208DF803006946984800F06DFD01215B
:100AD0004FF0201000F037FE0B20ADF8000003208F
:100AE0008DF8020004208DF8030069468D4800F05F
:100AF0005BFD4FF48060ADF8000003208DF802002C
:100B000004208DF803006946884800F04DFD082058
:100B1000ADF8000003208DF8020004208DF80300DA
:100B20006946814800F040FD4FF4F850ADF80000F0
:100B300003208DF8020004208DF8030069467C48EC
:100B400000F032FD0220ADF8000000208DF8030017
:100B50006946764800F028FD4FF48070ADF800003B
:100B600003208DF8020018208DF8030069466D48B7
:100B700000F01AFD08BD08B500214FF0006000F03C
:100B800011F94FF4A06000F0D5F83D208DF8000079
:100B900000208DF801008DF8020001208DF803007F
:100BA000684600F0CCF814208DF8000001208DF884
:100BB000010000208DF8020001208DF80300684636
:100BC00000F0BDF840208DF8000002208DF80100F3
:100BD00000208DF8020001208DF80300684600F027
:100BE000AEF825208DF8000003208DF801000020CC
:100BF0008DF8020001208DF80300684600F09FF890
:100C000026208DF8000004208DF8010000208DF8CA
:100C1000020001208DF80300684600F090F81C20C7
:100C20008DF8000001208DF801008DF802008DF88C
:100C30000300684600F083F808BD10B586B002F0E6
:100C400019FA0121480401F025F801214FF4E030A0
:100C500001F006F8012140F27D2001F00EF8FFF7C7
:100C60008AFFFFF70BFFFFF75BFCFFF7B9FE01A858
:100C700000F01EFF64210198B0FBF1F4B4F1807F15
:100C800000D311E024F07F40401E4FF0E021486186
:100C90000F214FF0FF30FFF793FE00204FF0E021CF
:100CA00088610720086100BF0121881EFFF788FEC8
:100CB00006B010BD3EB504460121084600F0EAFF2B
:100CC0004FF0804001F03EF842F20F70ADF80400A2
:100CD00041F61F40ADF800000020ADF80600ADF869
:100CE000020069464FF0804001F000F901218807B9
:100CF00001F01EFF002241F61F414FF0804001F03D
:100D0000F8FC01221146900701F067FC01218807D9
:100D100001F048FC3EBD000018ED00E000E400E0FA
:100D2000400001000008014000100140000C01409B
:100D30000014014031490143314A1160704770B5D8
:100D4000002100230F22C4780CB32D4C246804F436
:100D5000E064C4F5E064210AC1F10403CA404478A8
:100D600004FA03F18478144021430901254C0678E4
:100D7000A155047804F01F050124AC4005786D11DD
:100D80004FF0E02606EB8505C5F8004109E0047840
:100D900004F01F050124AC401B4D0678761145F880
:100DA000264070BD194A0A400243154B1B1F1A60AA
:100DB000704739B1124A121D12680243104B1B1DB5
:100DC0001A6006E00E4A121D126882430C4B1B1D6E
:100DD0001A607047042808D14FF0E021096941F0FA
:100DE00004014FF0E022116107E04FF0E0210969B2
:100DF00021F004014FF0E022116170470000FA0574
:100E00000CED00E000E400E080E100E080FFFF1F67
:100E1000002044490860091D0860091D0860091D7B
:100E2000086041483F4914310860704700213D493E
:100E30008279002A3AD00A46126803689A430B4620
:100E40001A600A1D126803689A430B1D1A60027922
:100E500011440A6803681A430A60324A0832126869
:100E600003689A432F4B08331A601A1D12680368EF
:100E70009A432C4B0C331A604279102A0ED11A1F58
:100E8000126803681A43274B08331A601A1D126848
:100E900003681A43234B0C331A600DE02149427951
:100EA00011440A6803681A430A6005E00279114494
:100EB0000A6803689A430A60704700210160017163
:100EC0000C21417100218171704716491031096868
:100ED0000143144A10321160704701460020114A44
:100EE000143212680A4201D0012000E0002070474D
:100EF0000C49143108607047014600200022094B5C
:100F00001B6803EA0102074B14331B680B4202D033
:100F10000AB1012000E00020704702491431086046
:100F20007047000000040140FFFF0F000146002051
:100F3000FE4A106800F03800084310607047FB4913
:100F4000096821F00801F94A116011460968014356
:100F500011607047F549096821F01001F34A1160EA
:100F600011460968014311607047F148EF49486034
:100F7000F04848607047EE48EC494860ED484860EA
:100F80007047EA48006940F08000E849086170470E
:100F9000E648006940F08000E44908617047042099
:100FA000E249C96811F0010F01D001200EE0DF49CC
:100FB000C96811F0040F01D0022007E0DB49C968BD
:100FC00011F0100F01D0032000E00420704700B59D
:100FD00002460423FFF7E3FF034603E0FFF7DFFFCA
:100FE0000346521E012B01D1002AF7D102B9052375
:100FF000184600BD30B5044604254FF43020FFF7F5
:10100000E6FF0546042D17D1C848006940F00200EC
:10101000C649086108464461006940F04000086123
:101020004FF43020FFF7D3FF0546C048006941F672
:10103000FD710840BD490861284630BD10B5042443
:101040004FF43020FFF7C3FF0446042C16D1B748F5
:10105000006940F00400B54908610846006940F0A5
:10106000400008614FF43020FFF7B1FF0446AF485D
:10107000006941F6FB710840AC490861204610BD8B
:1010800000B502460423FFF78AFF034603E0FFF79B
:1010900086FF0346521E012B01D1002AF7D102B967
:1010A0000523184600BD10B504244FF43020FFF787
:1010B000E7FF0446042C16D19C48006940F0040068
:1010C0009A4908610846006940F0400008614FF401
:1010D0003020FFF7D5FF04469448006941F6FB71C4
:1010E000084092490861204610BD00208F49C96917
:1010F00011F0020F01D0012000E00020704730B550
:10110000A5250424FFF7F1FF00B100254FF430209E
:10111000FFF75DFF0446042C3AD185488349886077
:10112000844888600846006940F02000086108464D
:10113000006940F0400008614FF43020FFF747FF9E
:101140000446042C1BD17948006941F6DF71084040
:10115000764908610846006940F010000861764849
:101160000580E002FFF733FF0446052C10D06F48DE
:10117000006941F6EF7108406C49086108E0052CF0
:1011800006D06A48006941F6EF7108406749086176
:10119000204630BD78B506460C4604250020009058
:1011A000E802FFF714FF0546042D24D15F480069CB
:1011B00040F001005D4908613480E802FFF707FF55
:1011C0000546042D10D1B01C0090200C0099088019
:1011D000E802FFF7FCFE05465448006941F6FE713F
:1011E00008405249086106E05048006941F6FE7126
:1011F00008404E490861284678BD70B504460D4642
:101200000426F002FFF7E3FE0646042E11D14748FC
:10121000006940F00100454908612580F002FFF7B0
:10122000D6FE06464148006941F6FE7108403F4936
:101230000861304670BD70B505460E460424E002D4
:10124000FFF7C5FE0446042C17D13948374988609A
:10125000384888600846006940F0100008612E8018
:10126000E002FFF7B4FE0446052C06D02F480069C3
:1012700041F6EF7108402D490861204670BD2DE907
:10128000F04304464FF6FF763746B046B146042594
:10129000E443E6B2C4F30727C4F307484FEA1469EE
:1012A000E802FFF794FE0546042D49D120481F4966
:1012B0008860204888600846006940F01000086196
:1012C000FF2E06D01C4808300680E802FFF77FFE9C
:1012D0000546042D08D1FF2F06D017480A30078095
:1012E000E802FFF774FE0546042D0AD1B8F1FF0F9E
:1012F00007D011480C30A0F80080E802FFF767FE25
:101300000546042D0AD1B9F1FF0F07D00A480E3067
:10131000A0F80090E802FFF75AFE0546052D0FD011
:101320000248006941F6EF71084007E000200240E2
:1013300023016745AB89EFCD00F8FF1F66490861BF
:101340002846BDE8F08330B5054604244FF430202C
:10135000FFF73DFE0446042C41D160485E49886099
:101360005F4888600846006940F020000861084630
:10137000006940F0400008614FF43020FFF727FE7D
:101380000446042C22D15448006941F6DF7108401C
:10139000514908610846006940F0100008611DB11C
:1013A00000205049088002E0A5204E4908804FF4F3
:1013B0003020FFF70CFE0446052C10D0464800698B
:1013C00041F6EF7108404449086108E0052C06D059
:1013D0004148006941F6DF7108403F4908612046F5
:1013E00030BDF0B505460E46174604243B483A4941
:1013F00088603B488860E002FFF7E9FD0446042C62
:1014000019D13548006940F010003349086147F0B0
:10141000F800304328433349891C0880E002FFF775
:10142000D6FD0446052C06D02B48006941F6EF7125
:101430000840294908612046F0BD2748C069800856
:1014400070472548006A704700202349096811F059
:10145000200F01D0012000E00020704729B11E4A72
:10146000126902431C4B1A6104E01B4A1269824351
:10147000194B1A61704701460020012908D1164A0C
:10148000D26912F0010F01D0012008E0002006E02F
:10149000114AD2680A4201D0012000E000207047C2
:1014A0000D49C860704704200B49C96811F0010F4D
:1014B00001D001200EE00849C96811F0040F01D0E5
:1014C000022007E00449C96811F0100F01D0032081
:1014D00000E004207047000000200240230167451F
:1014E000AB89EFCD00F8FF1F10B50446CA4884420F
:1014F00008D10121042000F0E7FB0021042000F0C6
:10150000E3FB46E0C548844208D10121082000F0F1
:10151000DBFB0021082000F0D7FB3AE0C048844202
:1015200008D10121102000F0CFFB0021102000F095
:10153000CBFB2EE0BB48844208D10121202000F0E3
:10154000C3FB0021202000F0BFFB22E0B64884420C
:1015500008D10121402000F0B7FB0021402000F01D
:10156000B3FB16E0B148844208D10121802000F08D
:10157000ABFB0021802000F0A7FB0AE0AC488442CE
:1015800007D10121801500F09FFB0021A01500F07C
:101590009BFB10BD10B50121084600F095FB002112
:1015A000012000F091FB10BD2DE9F041024600251D
:1015B0000026002000230024002791F803C00CF02F
:1015C0000F0591F803C01CF0100F03D091F802C072
:1015D0004CEA050591F800C0BCF1000F31D0146849
:1015E00000202BE04FF0010C0CFA00F3B1F800C022
:1015F0000CEA03069E4220D183004FF00F0C0CFA38
:1016000003F7BC4305FA03FC4CEA040491F803C059
:10161000BCF1280F06D14FF0010C0CFA00FCC2F807
:1016200014C00AE091F803C0BCF1480F05D14FF097
:10163000010C0CFA00FCC2F810C0401C0828D1D3E1
:101640001460B1F800C0BCF1FF0F34DD5468002015
:101650002EE000F1080C4FF0010808FA0CF3B1F885
:1016600000C00CEA03069E4221D183004FF00F0C0C
:101670000CFA03F7BC4305FA03FC4CEA040491F8A6
:1016800003C0BCF1280F05D100F1080C08FA0CF8D2
:10169000C2F8148091F803C0BCF1480F07D100F1E3
:1016A000080C4FF0010808FA0CF8C2F81080401C32
:1016B0000828CED35460BDE8F0814FF6FF71018059
:1016C000022181700421C170704702460020936896
:1016D0000B4201D0012000E00020704701468868DD
:1016E00080B2704702460020D3680B4201D001202F
:1016F00000E0002070470146C86880B27047016171
:101700007047416170470AB1016100E04161704773
:10171000C16070474FF480320A4382618161826107
:1017200082698269704702460020424B18684FF672
:101730008073184040EA021008433E4B186070471F
:101740003D49C8617047F0B50A46002300240021D6
:10175000002500F00046B6F1004F02D1354EF16988
:1017600001E0344E7168C0F3034583B200F44016C3
:10177000B6F5401F08D121F070612E4E766826F034
:1017800070662C4F7E6012E000F48016B6F5801F64
:1017900006D1032606FA05F4A14341F0706106E084
:1017A000460D360103FA06F6B14341F0706122B1ED
:1017B000460D360103FA06F6314300F00046B6F155
:1017C000004F02D11B4EF16101E01A4E7160F0BD75
:1017D00030B500228B071C0F0F2303FA04F2154BC0
:1017E00008338C1053F824309343124C08348D1076
:1017F00044F8253023468C1053F824308C07240FEE
:1018000000FA04F423430B4C08348D1044F82530BF
:1018100030BD0A490860704700080140000C0140D3
:10182000001001400014014000180140001C01405C
:10183000002001400000014000002042DC00204266
:10184000F948006840F00100F74908600846406820
:10185000F6490840F449486008460068F4490840E1
:10186000F14908600846006820F4802008600846B6
:10187000406820F4FE0048600846006820F0A05050
:1018800008604FF47F0088600020C8627047E64916
:10189000096821F48031E44A11601146096821F495
:1018A00080211160B0F5803F03D0B0F5802F0ED1BC
:1018B00006E0DD49096841F48031DB4A116007E048
:1018C000D949096841F4A021D74A116000E000BF5E
:1018D00000BF704710B501460022002300204A11C6
:1018E000012A02D1D04C236806E0022A02D1CE4C54
:1018F000236A01E0CC4C636A01F01F02012494408A
:101900001C4201D0012000E0002010BD38B50020AD
:1019100000900024002500BF3120FFF7DBFF0546C3
:101920000098401C00900098B0F5A06F01D0002DE9
:10193000F2D03120FFF7CEFF08B1012400E00024EF
:10194000204638BD01460020B74A106820F0F80054
:1019500040EAC10010607047B6490860704702460F
:101960000020B14B586820F4741042EA0103184378
:10197000AD4B58607047AF4908667047024600207B
:10198000A94BD86AAC4B184042EA01031843A64B56
:10199000D862704701460020A34AD06A20F0F000C8
:1019A0000843D0627047014600209F4AD06A20F465
:1019B00070600843D06270479E4988667047014650
:1019C0000020994AD06A20F470400843D0627047E2
:1019D00098490867704701460020934A506820F0F4
:1019E00003000843506070478F48406800F00C00C7
:1019F0007047014600208C4A506820F0F0000843F0
:101A00005060704701460020874A506820F4E0602B
:101A100008435060704701460020834A506820F414
:101A2000605040EAC1005060704729B17E4A527A46
:101A300002437D4B5A7204E07B4A527A82437A4BCE
:101A40005A7270477D490860704701460020764A07
:101A5000506820F44040084350607047784908605F
:101A600070477749091D086070470021754A117059
:101A70006D4A82F82010012802D0042808D103E022
:101A80000121704A117004E005216E4A117000E0D6
:101A900000BF00BF70476C49086070476249096A1F
:101AA0000143614A116270476749443908607047D1
:101AB0002DE9F0410021002200250023002600240A
:101AC00000278C46DFF86081D8F8048008F00C010C
:101AD00021B1042907D0082959D109E0DFF86C8128
:101AE000C0F8008058E0DFF86881C0F8008053E05B
:101AF000DFF83481D8F8048008F47012DFF8288108
:101B0000D8F8048008F48035920C0D2A01D0921C7C
:101B100000E0062235B9DFF83C8102FB08F8C0F886
:101B2000008033E0DFF80081D8F82C8008F480369C
:101B3000DFF8F480D8F82C8008F00F0808F10104D1
:101B400046B9DFF80C81B8FBF4F808FB02F8C0F8DE
:101B500000801BE0DFF8D080D8F82C80C8F3031891
:101B600008F10107DFF8C080D8F82C80C8F30328FB
:101B700008F1020CDFF8D880B8FBF7F808FB0CF886
:101B8000B8FBF4F808FB02F8C0F8008004E0DFF8C6
:101B9000BC80C0F8008000BF00BFDFF88C80D8F8A0
:101BA000048008F0F0010909DFF8AC8018F8013072
:101BB000D0F8008028FA03F8C0F80480DFF86880C5
:101BC000D8F8048008F4E061090ADFF88C8018F87E
:101BD0000130D0F8048028FA03F8C0F80880DFF854
:101BE0004880D8F8048008F46051C90ADFF868809A
:101BF00018F80130D0F8048028FA03F8C0F80C80F7
:101C0000DFF82480D8F8048008F44041890BDFF81D
:101C10004C8018F80130D0F80C80B8FBF3F8C0F80D
:101C20001080BDE8F0810000001002400000FFF0CD
:101C3000FFFFF6FE00004242F0FFFEFFD8004242E6
:101C4000C4054242201002408004424200127A0041
:101C500040787D0100093D00180000202800002088
:101C600029B1354A52690243334B5A6104E0324A82
:101C700052698243304B5A61704729B12E4A9269AA
:101C800002432D4B9A6104E02B4A926982432A4B0E
:101C90009A61704729B1284AD2690243264BDA611A
:101CA00004E0254AD2698243234BDA61704729B1A7
:101CB000214A926A0243204B9A6204E01E4A926AC9
:101CC00082431D4B9A62704729B11B4AD268024376
:101CD000194BDA6004E0184AD2688243164BDA6086
:101CE000704729B1144A12690243134B1A6104E088
:101CF000114A12698243104B1A6170470F490860FC
:101D000070470F49C86470470B49C87170470A484B
:101D1000406A40F0807008494862704701460020E0
:101D2000054A92680A4201D0012000E00020704775
:101D3000014988727047000000100240400442428E
:101D40000000424210B50446FE48844208D10121F9
:101D5000C014FFF7B9FF0021E014FFF7B5FFC4E09E
:101D6000B4F1804F08D101210846FFF7BAFF0021E6
:101D70000120FFF7B6FFB8E0F348844208D1012103
:101D80000220FFF7AEFF00210220FFF7AAFFACE020
:101D9000EE48844208D101210420FFF7A2FF002170
:101DA0000420FFF79EFFA0E0E948844208D101210A
:101DB0000820FFF796FF00210820FFF792FF94E02C
:101DC000E448844208D101211020FFF78AFF002156
:101DD0001020FFF786FF88E0DF48844208D1012108
:101DE0002020FFF77EFF00212020FFF77AFF7CE014
:101DF000DA48844208D101214014FFF765FF002131
:101E00006014FFF761FF70E0D548844209D10121D9
:101E1000C804FFF759FF00214FF40020FFF754FFDB
:101E200063E0D048844209D101210805FFF74CFF47
:101E300000214FF48010FFF747FF56E0CA48844264
:101E400009D101214805FFF73FFF00214FF40010A1
:101E5000FFF73AFF49E0C548844208D101214020FC
:101E6000FFF73FFF00214020FFF73BFF3DE0C04868
:101E7000844208D101218020FFF733FF0021802018
:101E8000FFF72FFF31E0BB48844208D101218015C4
:101E9000FFF727FF0021A015FFF723FF25E0B64835
:101EA000844209D101210804FFF70EFF00214FF4FD
:101EB0008030FFF709FF18E0B048844209D10121C2
:101EC0004804FFF701FF00214FF40030FFF7FCFE4C
:101ED0000BE0AB48844208D101218804FFF7F4FEEF
:101EE00000214FF48020FFF7EFFE10BD0022028892
:101EF000944B98420ED0994B98420BD0B0F1804F42
:101F000008D0914B984205D0904B984202D0904B0C
:101F1000984204D14FF68F731A404B881A438D4B69
:101F2000984207D08C4B984204D04FF6FF431A409A
:101F3000CB881A4302808B8883850B880385814B6D
:101F400098420BD0854B984208D08B4B984205D0D5
:101F50008A4B984202D08A4B984201D10B7A038671
:101F600001238382704770B5002400220023058C72
:101F70004FF6FE7635400584028C8388048B4FF63D
:101F80008F752C40B51E2C400D882C43751E2A40A1
:101F90000D892A434D882A436A4DA8420BD06F4DC4
:101FA000A84208D0744DA84205D0744DA84202D072
:101FB000734DA84213D14FF6F7752A404D892A4335
:101FC0004FF6FB752A408D882A434FF6FF652B405C
:101FD0004FF6FF552B408D892B43CD892B438380B2
:101FE0000483CD888586028470BD70B500240022EC
:101FF0000023058C4FF6EF7635400584028C8388EC
:10200000048B48F6FF752C404FF6FF452C400D8899
:102010004FF6FF7606EA05252C434FF6DF752A407A
:102020000D8906EA05152A434D8806EA05152A4357
:10203000444DA84202D0494DA8421DD14FF67F75AC
:102040002A404D894FF6FF7606EA05152A434FF6DA
:10205000BF752A408D8806EA05152A434FF6FF35DD
:102060002B404FF2FF752B408D8906EA85052B43E7
:10207000CD8906EA85052B4383800483CD880587B7
:10208000028470BD70B5002400220023058C4FF639
:10209000FF6635400584028C8388848B4FF68F75EC
:1020A0002C404FF6FC752C400D882C434FF6FF5505
:1020B0002A400D894FF6FF7606EA05252A434D880A
:1020C00006EA05252A431F4DA84202D0234DA84207
:1020D0001DD14FF2FF752A404D894FF6FF7606EA73
:1020E00005252A434FF6FF352A408D8806EA052547
:1020F0002A434EF6FF752B404DF6FF752B408D8918
:1021000006EA05152B43CD8906EA05152B43838086
:102110008483CD888587028470BD70B5002200233A
:102120000024058C4EF6FF7635400584038C8488A8
:10213000828B48F6FF752A404FF6FF452A400D88EE
:1021400020E00000002C0140000400400008004096
:10215000000C00400010004000140040003401401A
:10216000004C014000500140005401400018004064
:10217000001C00400020004000400140004401409D
:10218000004801404FF6FF7606EA05252A434DF642
:10219000FF752B400D8906EA05352B434D8806EA6D
:1021A00005352B43FA4DA84202D0FA4DA84208D17A
:1021B0004BF6FF752C408D894FF6FF7606EA8515A4
:1021C0002C4384808283CD88A0F84050038470BD66
:1021D000828B4FF2FF331A408283828B4FF6FF735C
:1021E00003EA01231A4382837047F0B50C46154673
:1021F000002200210026078C4EF6FF7C07EA0C0720
:102200000784828B018C4FF6FF7707EA043640F68D
:10221000FF473A404FF6FF7707EA05273A434FF664
:10222000FF7707EA03373A43D94FB8420ED0D94F68
:10223000B8420BD0B0F1804F08D0D74FB84205D08C
:10224000D64FB84202D0D64FB84206D14DF6FF77EE
:10225000394046F48057394305E047F6FF57394087
:1022600044F48057394382830184F0BD828B4FF65A
:10227000F3731A408283828B0A4382837047F0B5DE
:102280000C461546002200210026078C4FF6FF6CF5
:1022900007EA0C070784828B018C4FF6FF7707EA69
:1022A00004264FF60C773A404FF6FF7707EA0317FC
:1022B0002F433A43B64FB8420ED0B64FB8420BD078
:1022C000B0F1804F08D0B44FB84205D0B34FB842F8
:1022D00002D0B34FB84206D14FF6FF57394046F40B
:1022E0008077394305E04FF2FF57394044F4807757
:1022F000394382830184F0BD028B4FF2FF331A40D1
:102300000283028B4FF6FF7303EA01231A43028311
:102310007047F0B50C461546002200210026078CB8
:102320004FF6EF7C07EA0C070784028B018C4FF60F
:10233000FF7707EA041640F6FF473A404FF6FF776B
:1023400007EA03373A434FF6FF7707EA05273A4390
:102350008F4FB8420ED08F4FB8420BD0B0F1804FA4
:1023600008D08D4FB84205D08C4FB84202D08C4F68
:10237000B84206D14FF6DF77394046F010073943AF
:1023800005E04FF65F77394044F010073943028388
:102390000184F0BD028B4FF6F3731A400283028B67
:1023A0000A4302837047F0B50C461546002200210F
:1023B000068C4FF6FE773E400684028B018C4FF66A
:1023C0000C7632407E1C06EA03162E433243704ED2
:1023D000B0420ED06F4EB0420BD0B0F1804F08D05B
:1023E0006D4EB04205D06D4EB04202D06C4EB04240
:1023F00006D14FF6FD76314044F00106314305E049
:102400004FF6F576314044F00106314302830184F2
:10241000F0BD70B505460C465D4885420ED05D485E
:1024200085420BD0B5F1804F08D05B48854205D07E
:102430005A48854202D05A48854200D100E000BF88
:10244000208850B92389A28861882846FFF7ABFF0E
:10245000E1882846FFF79EFF25E0208804280AD15E
:102460002389A28861882846FFF753FFE188284620
:10247000FFF742FF17E0208808280AD12389A288A5
:1024800061882846FFF7FBFEE1882846FFF7EEFE4D
:1024900009E02389A28861882846FFF7A6FEE18823
:1024A0002846FFF795FE70BD2DE9F04105460C4624
:1024B00000260127608808B9022600E00026A088CF
:1024C000012801D1022700E001272088A0B9238933
:1024D000A28861882846FFF766FFE1882846FFF753
:1024E00059FF23893A4631462846FFF712FFE18813
:1024F0002846FFF701FF13E02389A2886188284658
:10250000FFF707FFE1882846FFF7F6FE23893A46E2
:1025100031462846FFF747FFE1882846FFF73AFF94
:10252000BDE8F0810A884B881A438B881A43CB8810
:102530001A430B891A434B891A438B891A43A0F813
:10254000442070474FF6FF71818000210180C180D7
:102550004180017270470021018041808180C180EB
:10256000018141818181C1817047002101804180C9
:10257000012181800021C1800181704700210180FB
:1025800041808180C180018141818181704700004B
:10259000002C0140003401400004004000080040CD
:1025A000000C004021B1028842F00102028004E0E8
:1025B00002884FF6FE731A400280704731B1B0F8BE
:1025C000442042F40042A0F8442005E0B0F8442042
:1025D000C2F30E02A0F8442070471AB183890B435E
:1025E000838102E083898B438381704781827047B6
:1025F00041EA0203A0F8483070471AB183890B43BF
:10260000838102E083898B438381704701894FF680
:10261000F8721140018170470A46002101894FF686
:102620008F73194011430181704730B504460D4640
:1026300029462046FFF7F0FF208940F0070020815F
:1026400030BD2DE9F04104460D4616461F46602D6B
:1026500006D13B46012231462046FFF75AFE05E0EF
:102660003B46012231462046FFF79DFE2946204683
:10267000FFF7D2FF208940F007002081BDE8F081FC
:1026800030B50C4600210189C9B24FF6FF7505EA45
:102690000325154325432943018130BD2DE9F04130
:1026A00005460E4617469846002443463A463146AC
:1026B0002846FFF7E5FF2C894FF6F870044044F0F8
:1026C00007044FF68F70044044F070042C81BDE87D
:1026D000F081F0B504460D4616461F463B4632468D
:1026E00029462046FFF7CCFF208940F48040208116
:1026F000F0BD0185828270470A46002101884FF6AD
:102700008F731940114301807047F0B50C46154690
:102710001E460021002200230189028B038C4FF604
:10272000F877394021434FF6FC473A4040F2011711
:102730003A434FF6DD773B404FF6FF7707EA06173F
:102740002F433B43018102830384F0BD0A460021ED
:10275000018B4FF68F7319401143018370470A466E
:102760000021018B48F6FF7319404FF6FF7303EA0F
:1027700002231943018370470A460021818B4FF6DB
:102780008F7319401143818370470A460021818B62
:1027900048F6FF7319404FF6FF7303EA022319430B
:1027A0008183704721B1028842F08002028004E0F8
:1027B00002884FF67F731A400280704721B18288E9
:1027C00042F00402828004E082884FF6FB731A40D4
:1027D0008280704721B1828842F00802828004E042
:1027E00082884FF6F7731A408280704721B1828841
:1027F00042F00102828004E082884FF6FE731A40A4
:10280000828070470A460021018B4FF6F77319400A
:102810001143018370470A460021018B4FF2FF7379
:1028200019404FF6FF7303EA0223194301837047EF
:102830000A460021818B4FF6F773194011438183BB
:1028400070470A460021818B4FF2FF7319404FF603
:10285000FF7303EA02231943818370470A4600216C
:10286000018B4FF6FB7319401143018370470A46F1
:102870000021018B4FF6FF3319404FF6FF7303EA37
:1028800002231943018370470A460021818B4FF6CA
:10289000FB7319401143818370470A460021818BE5
:1028A0004FF6FF3319404FF6FF7303EA0223194333
:1028B000818370470A460021018B4FF67F731940D0
:1028C0001143018370470A460021018BC1F30E01B9
:1028D0004FF6FF7303EA02231943018370470A4648
:1028E0000021818B4FF67F7319401143818370471C
:1028F0000A460021818BC1F30E014FF6FF7303EAF4
:1029000002231943818370470A460021018C4FF648
:10291000FD7319401143018470470A460021018C60
:102920004FF6F77319401143018470470A4600219E
:10293000018C4FF6DF7319404FF6FF7303EA021361
:102940001943018470470A460021018C4FF67F73BA
:1029500019404FF6FF7303EA0213194301847047CD
:102960000A460021018C4FF6FF5319404FF6FF73C2
:1029700003EA02231943018470470A460021018CAF
:102980004FF2FF7319404FF6FF7303EA0223194316
:10299000018470470A460021018C4DF6FF731940EF
:1029A0004FF6FF7303EA023319430184704730B5D1
:1029B000002301248C40A3B2048C9C430484048C27
:1029C00002FA01F5ADB22C43048430BD30B50023CA
:1029D00004248C40A3B2048C9C430484048C02FA2B
:1029E00001F5ADB22C43048430BD70B50346002020
:1029F00000241846183001258D40ACB21D8CA5432B
:102A00001D8409B1082909D100EB6100056825F092
:102A1000700505600568154305600EE00D1FC5F3E0
:102A20004E052844056825F4E045056005684FF625
:102A3000FF7606EA02263543056070BD21B10288A3
:102A400042F00202028004E002884FF6FD731A4051
:102A50000280704721B1028842F00402028004E043
:102A600002884FF6FB731A400280704721B18288BA
:102A700042F08002828004E082884FF67F731A4021
:102A80008280704702884FF6F7731A4002800288EE
:102A90000A430280704782884FF68F731A40828003
:102AA00082880A438280704702894FF6F8731A4081
:102AB000028102890A430281704702894FF67F73BF
:102AC0001A40028102890A4302817047818470475B
:102AD000818570478186704701877047818770477D
:102AE000A0F84010704702884FF6FF431A4002805A
:102AF00002880A43028070470146888E704701466B
:102B0000088F70470146888F70470146B1F8400032
:102B100070470146888C70470146088D7047024611
:102B20000020138A0B4201D0012000E000207047F2
:102B3000CA430282704730B50246002000230024B9
:102B4000158A05EA0103958905EA010413B10CB160
:102B5000012000E0002030BDCA430282704700001F
:102B600010B50446FB48844209D101218803FFF7D0
:102B7000ABF800214FF48040FFF7A6F832E0F648AA
:102B8000844209D101214804FFF7ABF800214FF43A
:102B90000030FFF7A6F825E0F048844209D1012172
:102BA0008804FFF79EF800214FF48020FFF799F882
:102BB00018E0EB48844209D10121C804FFF791F8DD
:102BC00000214FF40020FFF78CF80BE0E548844229
:102BD00008D101210805FFF784F800214FF4801087
:102BE000FFF77FF810BD2DE9F04786B005460E4689
:102BF0000024A24600BFA1460027B08900B100BF53
:102C00002F462C8A4CF6FF700440F08804432C8237
:102C1000AC894EF6F3100440B088318908437189BD
:102C200008430443AC81AC8A4FF6FF400440B089AE
:102C30000443AC8201A8FEF73BFFC648874202D19D
:102C4000DDF810A001E0DDF80CA0A88910F4004F19
:102C500008D00AEBCA0000EB0A1031684900B0FB4B
:102C6000F1F807E00AEBCA0000EB0A1031688900AE
:102C7000B0FBF1F86420B8FBF0F0040120096421F6
:102C800001FB1089A88910F4004F08D0322000EB16
:102C9000C900B0FBF1F000F00700044308E0322067
:102CA00000EB09106421B0FBF1F000F00F000443C9
:102CB0002C8106B0BDE8F0874FF416510160002169
:102CC0008180C18001810C21418100218181704777
:102CD00010B502460020108A4FF2FF0318400B88FF
:102CE0004C8823438C882343CC8823431843108289
:102CF00010BD0021018041808180C180704721B1D9
:102D0000828942F40052828104E082894DF6FF7389
:102D10001A4082817047F0B5034600240026002542
:102D20000020A1F510676A3F00D100BF1846C1F32B
:102D3000421401F01F06012707FA06F5012C01D104
:102D40000C3004E0022C01D1103000E014301AB134
:102D500007682F43076002E00768AF430760F0BDD4
:102D60001AB1838A0B43838202E0838A8B43838276
:102D70007047028A4FF6F0731A400282028A0A43B1
:102D80000282704782894FF2FF731A4082818289E2
:102D90000A438281704721B1828942F00202828116
:102DA00004E082894FF6FD731A4082817047028ADF
:102DB0004FF6DF731A400282028A0A43028270478A
:102DC00021B1028A42F48042028204E0028A4BF678
:102DD000FF731A4002827047C1F308028280704775
:102DE00001468888C0F308007047818941F00101DD
:102DF00081817047028BD2B20283028B42EA0122A8
:102E000002837047028B02F47F420283028B0A43E3
:102E10000283704721B1828A42F02002828204E05C
:102E2000828A4FF6DF731A408282704721B1828A0C
:102E300042F01002828204E0828A4FF6EF731A4059
:102E40008282704721B1828A42F00802828204E0C5
:102E5000828A4FF6F7731A408282704721B18289C5
:102E600042F40042828103E08289C2F30E02828131
:102E7000704721B1828A42F40062828204E0828A31
:102E80004FF2FF731A4082827047828A4FF6FB73BB
:102E90001A408282828A0A438282704721B1828AE2
:102EA00042F00202828204E0828A4FF6FD731A40E9
:102EB0008282704702460020B1F5007F00D100BF3A
:102EC00013880B4201D0012000E00020704701F47C
:102ED0000072B2F5007F00D100BFCA430280704784
:102EE00070B502460024002300250020A1F51066DD
:102EF0006A3E00D100BFC1F3421501F01F03012655
:102F000006FA03F3012D02D19689334006E0022D23
:102F100002D1168A334001E0968A33400C12012612
:102F200006FA04F41688344013B10CB1012000E015
:102F3000002070BD10B500220023A1F510646A3C8A
:102F400000D100BF0A1201249440A3B2DC430480E4
:102F500010BD00000038014000440040004800401F
:102F6000004C0040005000400CB500200190009043
:102F70009148006840F480308F49086000BF8E4857
:102F8000006800F4003000900198401C0190009807
:102F900018B90198B0F5A06FF1D18748006810F416
:102FA000003F02D00120009001E000200090009836
:102FB00001285AD18148006840F010007F4908601C
:102FC0000846006820F0030008600846006840F0EA
:102FD00002000860784840687749486008464068C1
:102FE00048600846406840F4806048600846C06A0F
:102FF000734908407049C8620846C06A714908436D
:103000006D49C8620846006840F08060086000BFF3
:103010006948006810F0006FFAD06748406820F4F3
:103020007C10654948600846406840F4E8104860F4
:103030000846006840F08070086000BF5E48006885
:1030400010F0007FFAD05C48406820F003005A4935
:1030500048600846406840F00200486000BF56489B
:10306000406800F00C000828F9D10CBD10B5FFF73E
:103070007BFF10BD10B55048006840F001004E497C
:10308000086008464068504908404B494860084677
:1030900000684E490840484908600846006820F426
:1030A000802008600846406820F4FE00486008461A
:1030B000006820F0A05008604FF47F008860002076
:1030C000C862FFF7D3FF4FF000604149086010BDB0
:1030D000F0B5002100200023002400220025002656
:1030E000354F7F6807F00C0121B1042908D0082969
:1030F0004BD10BE0374FDFF8E0C0CCF800704AE06E
:10310000364FDFF8D4C0CCF8007044E02A4F7F6817
:1031100007F47010284F7F6807F48033800C0D2867
:1031200001D0801C00E0062033B92D4F4743DFF863
:10313000A8C0CCF8007027E01F4FFF6A07F4803466
:103140001D4FFF6A07F00F077A1C44B9234FB7FBE6
:10315000F2F74743DFF880C0CCF8007014E0164F58
:10316000FF6AC7F303177D1C134FFF6AC7F30327DA
:10317000BE1C1A4FB7FBF5F77743B7FBF2F747438F
:10318000DFF854C0CCF8007005E0124FDFF848C0FB
:10319000CCF8007000BF00BF074F7F68C7F303176C
:1031A000DFF840C01CF807100B4F3F68CF40DFF836
:1031B00028C0CCF80070F0BD001002400020024092
:1031C00000F0FEFF440601000000FFF0FFFFF6FEE6
:1031D00008ED00E000127A002C00002040787D010C
:1031E00000093D003000002000F1080141604FF06F
:1031F000FF31816000F10801C160016100210160BF
:10320000704700210161704742684A6093688B6093
:10321000936859609160086103685B1C03607047A4
:1032200010B502460B685C1C01D1106907E002F181
:10323000080000E04068446824689C42FAD9446869
:103240004C604C68A160886041600A611468641C2D
:10325000146010BD01460A69D1E901309860D1E9D6
:10326000010358605068884201D18868506000208E
:1032700008611068401E10601068704770B5054600
:103280000E462C4602F042F9D4E90F12206801FBE9
:10329000020060600020A0632068A060E06B401E18
:1032A000226C216800FB0210E060FF2084F84400DB
:1032B00084F845009EB9206908B9012000E000208B
:1032C000A8B904F1100001F094FA80B14FF08050D9
:1032D000FE490860BFF34F8FBFF36F8F07E004F123
:1032E0001000FFF781FF04F12400FFF77DFF02F0DB
:1032F0001CF9012070BD2DE9F04106460D46174628
:103300009846069C0DB9246000E02760E6632564BA
:1033100001212046FFF7B2FF84F84C80BDE8F08120
:103320002DE9F84307460D4690460DB9002601E009
:1033300007FB05F606F1500002F085F9044644B19A
:1033400004F1500943464A46294638460094FFF79F
:10335000D2FF2046BDE8F88370B5044602F0D6F8E7
:1033600094F9455010E0606A08B9012000E000209F
:1033700038B904F1240001F03CFA18B101F0CDFA9B
:1033800000E003E0681E45B2002DECDC00BFFF202A
:1033900084F8450002F0C9F802F0B8F894F94450F6
:1033A00010E0206908B9012000E0002048B904F1CC
:1033B000100001F01EFA08B101F0AFFA681E45B224
:1033C00000E001E0002DECDC00BFFF2084F84400A9
:1033D00002F0ABF870BD70B5054602F097F8A86B27
:1033E000E96B884201D1012400E0002402F09DF83D
:1033F000204670BD2DE9F04104460F4615464FF0BA
:103400000008A66B206C40B9206860BB606801F0C2
:10341000F4FA80460020606025E07DB93946226CD0
:10342000A06810F005F9216CA0680844A060D4E9F8
:103430000110884217D32068A06014E03946226C3E
:10344000E06810F0F5F8216CE068401AE06021684F
:10345000E068884203D2216C6068401AE060022D67
:1034600001D106B1761E701CA0634046BDE8F08114
:103470002DE9FF4383B0074688461D464FF00009FB
:103480003C4600BF02F042F8A06BE16B884201D3DA
:10349000022D28D12A4641462046FFF7ABFF0646BB
:1034A000606A08B9012000E0002068B904F1240036
:1034B00001F09FF988B14FF0805084490860BFF354
:1034C0004F8FBFF36F8F08E03EB14FF080507F49C0
:1034D0000860BFF34F8FBFF36F8F02F026F8012013
:1034E00007B0BDE8F083059818B902F01EF8002077
:1034F000F6E7B9F1000F04D101A801F0DDF94FF0B2
:10350000010902F012F800F050FD01F0FFFF94F9FC
:103510004400401C01D184F8440094F94500401C4B
:1035200001D184F8450002F000F805A901A801F0D6
:10353000CAF9F0B92046FFF74EFFA0B104F1100020
:10354000059901F022F92046FFF706FF00F061FC23
:10355000002897D14FF080505C490860BFF34F8F2F
:10356000BFF36F8F8EE72046FFF7F6FE00F051FCA9
:1035700088E72046FFF7F0FE00F04BFC0020AFE7A5
:1035800010B504464CB1002060602060E06000236C
:103590001A4619462046FFF76BFF10BD2DE9F04192
:1035A000044601260027224600210120FFF7B8FE2D
:1035B00005462846FFF7E4FF2846BDE8F08170B5D0
:1035C0000646344601F0B8F9616888420CD1E068DB
:1035D000401EE060E06828B900231A4619462046DC
:1035E000FFF746FF012500E00025284670BD70B5B5
:1035F000054601F08BFFA86B08B9012400E0002408
:1036000001F093FF204670BD70B504460D46206C56
:1036100070B1216CE0680844E0606168E06888424D
:1036200001D32068E0602846226CE16810F000F8C1
:1036300070BD2DE9FF4782B0054689461E464FF012
:10364000000A2C4600BF01F061FFD4F83880B8F1C1
:10365000000F3DD0E76849462046FFF7D5FFDEB9A9
:10366000A8F10100A063206810B901F002FB6060BE
:10367000206908B9012000E0002008BB04F1100017
:1036800001F0B7F8E0B14FF0805010490860BFF387
:103690004F8FBFF36F8F13E0E760606A08B90120B6
:1036A00000E0002060B904F1240001F0A2F838B174
:1036B0004FF0805005490860BFF34F8FBFF36F8F05
:1036C00001F033FF012006B0BDE8F08704ED00E013
:1036D000049818B901F029FF0020F4E7BAF1000FAF
:1036E00004D1684601F0E8F84FF0010A01F01DFF2F
:1036F00000F05BFC01F00AFF94F94400401C01D18A
:1037000084F8440094F94500401C01D184F8450038
:1037100001F00BFF04A9684601F0D5F840BB204634
:10372000FFF765FFF0B1206830B901F0EFFE606887
:1037300001F011F901F0F9FE04F12400049901F0FF
:1037400024F82046FFF708FE00F063FB00287FF412
:103750007AAF4FF08050C1490860BFF34F8FBFF37D
:103760006F8F70E72046FFF7F7FD00F052FB6AE726
:103770002046FFF7F1FD00F04CFB2046FFF737FF36
:103780000028EED000209EE72DE9F04106460F46C6
:10379000344601F0D1F86168884204D1E068401CE9
:1037A000E06001250AE000233A4619462046FFF76B
:1037B00040FF054615B1E068401CE0602846BDE8C2
:1037C000F08170B506460D46022200213046FFF713
:1037D000A7FD044604B1A563204670BD2DE9F05F46
:1037E00005468A4616461F462C4600BFBF21EFF30A
:1037F000118081F31188BFF34F8FBFF36F8F00BF2C
:103800008146A06BE16B884201D3022F20D194F94D
:1038100045B03A4651462046FFF7ECFD1BF101004A
:103820000ED1606A08B9012000E0002068B904F1F7
:10383000240000F0DEFF40B13EB10120306004E022
:103840000BF1010040B284F845004FF0010801E09F
:103850004FF0000800BF89F3118800BF4046BDE863
:10386000F09F2DE9F04705460E462C4600BFBF21CC
:10387000EFF3118081F31188BFF34F8FBFF36F8F88
:1038800000BF8046D4F83890E06B48451DD994F9C4
:1038900045A009F10100A0631AF101000ED1606A90
:1038A00008B9012000E0002068B904F1240000F00C
:1038B000A0FF40B13EB10120306004E00AF10100F8
:1038C00040B284F84500012700E0002700BF88F3DC
:1038D000118800BF3846BDE8F0872DE9F05F054646
:1038E0008A4616462C4600BFBF21EFF3118081F3B4
:1038F0001188BFF34F8FBFF36F8F00BF8046D4F89E
:103900003890B9F1000F21D094F944B051462046C7
:10391000FFF77AFEA9F10100A0631BF101000ED1AF
:10392000206908B9012000E0002068B904F1100006
:1039300000F05FFF40B13EB10120306004E00BF1C8
:10394000010040B284F84400012700E0002700BFD6
:1039500088F3118800BF3846BDE8F09F2DE9F04795
:10396000054689462C4600BFBF21EFF3118081F345
:103970001188BFF34F8FBFF36F8F00BF0746A06B57
:1039800048B1D4F80C8049462046FFF73DFEC4F804
:103990000C80012600E0002600BF87F3118800BFDD
:1039A0003046BDE8F08770B5044601F0AFFDA56B69
:1039B00001F0BBFD284670BD70B50446254601F0F8
:1039C000A5FDD5E90E10461A01F0AFFD304670BDD9
:1039D0000146886B704770B504462546284601F0BD
:1039E0008FFE70BD0146886C704781647047014648
:1039F00091F84C00704701468A6B0AB9012000E03B
:103A00000020704701468A6BCB6B9A4201D101209E
:103A100000E0002070472DE9F04105460E461746AC
:103A20002C4601F073FD94F94400401C01D184F848
:103A3000440094F94500401C01D184F8450001F090
:103A400074FDA06B28B93A46314604F1240000F019
:103A5000BEFE2046FFF780FCBDE8F08104ED00E0EB
:103A600010B5002407E004EB8401FE4A02EB81005C
:103A7000FFF7BAFB641C052CF5D3FB48FFF7B4FB3A
:103A8000FA48FFF7B1FBFA48FFF7AEFBF948FFF73A
:103A9000ABFBF948FFF7A8FBF348F8490860F34887
:103AA000F749086010BD10B5044601F02FFDF54838
:103AB0000068401CF3490860F348006840B9F248C8
:103AC00004600846006801280DD1FFF7C9FF0AE02D
:103AD000EE48006838B9EC480068C06AE16A88427C
:103AE00001D8E9480460EA480068401CE8490860D9
:103AF00008460068606494F82C1001208840E5496D
:103B000009680843E3490860E16A01EB8101D54A8D
:103B100002EB8100211DFFF777FB01F006FDDB487A
:103B2000006868B1D8480068C06AE16A884207D274
:103B30004FF08050D8490860BFF34F8FBFF36F8FAD
:103B400010BD2DE9F05F81460F4690469A460A9EC9
:103B50000C9C4FEA8801A522206B0FF07BFDA8F199
:103B60000100216B01EB800B2BF0070B002507E018
:103B7000795D04F134004155785D00B902E06D1CB7
:103B8000102DF5D300BF002143200155052E00D391
:103B90000426E662E66400202065201DFFF731FB65
:103BA00004F11800FFF72DFB2461C6F10500A061A8
:103BB000646200206065A06584F85C005246494656
:103BC000584601F076FC20600B9808B10B98046011
:103BD000BDE8F09F2DE9FF4F85B080468946174626
:103BE000DDE912ABB80001F02EFD064656B16020AB
:103BF00001F029FD04460CB1266304E0304601F0D3
:103C00007FFD00E000247CB10020CDE900ABCDE9D0
:103C100002403A4649464046089BFFF792FF20463D
:103C2000FFF741FF012501E04FF0FF35284609B0BD
:103C3000BDE8F08F91490968096809B9012100E0E0
:103C4000002121B14FF0FF31944A116006E08B4909
:103C50000968C968C868914A41681160704710B521
:103C60000446206B01F04CFD204601F049FD10BDDB
:103C700070B5054601F04AFC15B98348006800E0BC
:103C800028460446201DFFF7E5FA78B9E06A00EB04
:103C90008000744951F8200040B994F82C1001209C
:103CA00088407C49096881437A480160A06A18B15C
:103CB00004F11800FFF7CEFA75480068401C7449FB
:103CC000086071480068844209D1211D6948FFF7E6
:103CD0009BFA73480068401C7149086009E0694814
:103CE0000068401E674908602046FFF7B8FFFFF7ED
:103CF000A1FF01F01AFC6548006858B162480068ED
:103D0000844207D14FF0805063490860BFF34F8F62
:103D1000BFF36F8F70BD2DE9F04100276148006847
:103D2000002868D160480068451C5F4805608DB96F
:103D30005248D0F800805248006850490860504806
:103D4000C0F8008059480068401C58490860FFF7D7
:103D500071FF00BF5148006885423BD300BF474810
:103D60000068006808B9012000E0002020B14FF091
:103D7000FF304A4908602CE040480068C068C468C9
:103D80006668B54202D24548066022E0201DFFF772
:103D900061FAA06A18B104F11800FFF75BFA94F811
:103DA0002C10012088403B490968084339490860C4
:103DB000E16A01EB81012B4A02EB8100211DFFF733
:103DC00023FA3149E06A0968C96A8842C7D30127E2
:103DD000C5E700BF2C480068C06A00EB800021499D
:103DE00051F82000012800D901273148006808B99E
:103DF000FCF70BFA06E02E480068401C2C490860CE
:103E0000FCF703FA2B48006800B101273846BDE8EB
:103E1000F08170B50024002601F078FB214800688D
:103E2000401E204908600846006800287BD11548DC
:103E30000068002877D050E00D48C068C46804F1DD
:103E40001800FFF707FA201DFFF704FA94F82C106A
:103E5000012088400F49096808430E490860E16A5B
:103E60002AE00000180200207C02002090020020BE
:103E7000A4020020B8020020CC0200207C00002018
:103E80008000002048000020400000205400002056
:103E9000640000205000002004ED00E068000020D5
:103EA00044000020700000204C0000206000002032
:103EB000580000205C00002001EB8101F94A02EB70
:103EC0008100211DFFF7A0F9F749E06A0968C96A76
:103ED000884202D30120F5490860F548006808B916
:103EE000012000E000200028A6D00CB1FFF7A2FEC0
:103EF000F048056865B100BFFFF70DFF10B1012064
:103F0000EA4908606D1E002DF6D10020E9490860DD
:103F1000E648006838B101263007E7490860BFF37A
:103F20004F8FBFF36F8F01F000FB304670BD2DE95E
:103F3000F04105460E46E1480768DB480068001D71
:103F4000FFF788F950B9D848006890F82C10012084
:103F50008840DB4909688143D9480160681C07D162
:103F600036B1D1480168091DD648FFF74DF91AE06E
:103F70007C19CD4800684460BC4207D2CA48016839
:103F8000091DD1480068FFF74BF90CE0C6480168ED
:103F9000091DCE480068FFF743F9CD480068844208
:103FA00001D2CB480460BDE8F081CA480068401CDB
:103FB000C849086070472DE9F047044688464FF02D
:103FC0000009FFF7F2FFBD480668206800EB08050E
:103FD0002068B04207D92068A8420BD9B54209D958
:103FE0004FF0010906E02068A84201D8B54201D986
:103FF0004FF001092560B9F1000F03D0A81B002183
:10400000FFF795FFFFF705FF07463FB94FF08050D8
:10401000A9490860BFF34F8FBFF36F8FBDE8F087EA
:1040200070B50446002544B1FFF7BFFF00212046CC
:10403000FFF77DFFFFF7EDFE05463DB94FF08050DD
:104040009D490860BFF34F8FBFF36F8F70BD2DE99F
:10405000F0410646374694480068874201D1002463
:104060001EE001F053FA7D6901F05FFA974800689D
:10407000854203D094480068854201D102240FE0B4
:104080009048854205D1B86A08B9032408E00224A3
:1040900006E09148854200D00DB9042400E00124D7
:1040A0002046BDE8F08170B5044601F02FFA14B93E
:1040B0007D48006800E020460646F56A01F035FAC2
:1040C000284670BD70B5024600BFBF25EFF31184CE
:1040D00085F31188BFF34F8FBFF36F8F00BF214669
:1040E00012B9714C246800E014462346D86A00BF18
:1040F00081F3118800BF70BD2DE9F04780460D4661
:104100004FF00009052D00D3042501F0FFF9B8F1A7
:10411000000F02D16448006800E040460446E66CA7
:10412000AE4256D0B5420BD95F48006884420DD0EC
:104130005D480068C06AA84208D84FF0010905E050
:1041400059480068844201D14FF00109E76AE16AE9
:10415000E06C884200D1E562E564A06910F0004F90
:1041600002D1C5F10500A06107EB87014D4A02EBC2
:1041700081016069884201D1012000E00020E0B1A6
:10418000201DFFF767F830B90120B8404C49096895
:1041900081434B48016094F82C1001208840484925
:1041A0000968084346490860E16A01EB81013D4A1C
:1041B00002EB8100211DFFF727F8B9F1000F07D0AE
:1041C0004FF080503C490860BFF34F8FBFF36F8FB3
:1041D00000BF01F0AAF9BDE8F08770B53D4800685E
:1041E00018B101203149086052E000202F490860D1
:1041F0003A4800683A490860084600683949096841
:1042000088420BD92849096801F15400496D344AA4
:104210001268344B1B68D21A1144016030480068A0
:104220003049086020480068046B4FF0A5352068CD
:10423000B0F1A53F0BD16068B0F1A53F07D1A068F0
:10424000B0F1A53F03D1E068B0F1A53F05D0164815
:10425000016834310068FBF7D1FF19480068B0FAF3
:1042600080F0C0F11F0101EB81020E4B03EB8200D5
:1042700042685268426000F108024368934202D1EA
:104280004268526842604268D268074B1A6000BFB9
:1042900070BD70B5054601F039F915B902480068DE
:1042A00023E021E018020020400000205C000020F4
:1042B000A40200205800002004ED00E04C00002083
:1042C00050000020CC020020800000207C00002054
:1042D0006800002070000020B802002008000020C4
:1042E000780000207400002028460446201DFEF7B8
:1042F000B1FF78B9E06A00EB8000FE4951F8200078
:1043000040B994F82C1001208840FB49096881438A
:10431000F9480160A06A18B104F11800FEF79AFF8D
:10432000211DF648FEF770FF01F0FFF8F448006821
:1043300028B101F0EBF8FFF77DFC01F0F6F8F14849
:104340000068844217D1EE48006840B14FF08050B9
:10435000ED490860BFF34F8FBFF36F8F0BE0E74865
:104360000068EA490968884203D10020E5490860ED
:1043700001E0FFF732FF70BD10B5014600200A468C
:10438000DE4C5369A34201D1012300E0002373B145
:10439000DF4C936AA34201D1012300E0002333B92B
:1043A000936A0BB9012300E0002303B1012010BD83
:1043B00070B505462C4674B3D248006884422AD0B2
:1043C00001F0A4F82046FFF7D7FF10B3201DFEF739
:1043D00041FF94F82C1001208840C7490968084320
:1043E000C5490860E16A01EB8101C24A02EB810024
:1043F000211DFEF709FFC349E06A0968C96A8842BE
:1044000007D34FF08050C0490860BFF34F8FBFF310
:104410006F8F01F08AF870BD2DE9F0410646002744
:10442000344600BFBF21EFF3118081F31188BFF341
:104430004F8FBFF36F8F00BF05462046FFF79CFFED
:1044400020B3B4480068E0B9AE49E06A0968C96AB7
:10445000884200D30127201DFEF7FCFE94F82C10A3
:1044600001208840A44909680843A3490860E16A1B
:1044700001EB81019F4A02EB8100211DFEF7C4FE82
:1044800004E004F11801A248FEF7BEFE00BF85F368
:10449000118800BF3846BDE8F08170B523E0FFF712
:1044A00084FD9D48006808B9012000E00020054611
:1044B000FFF7AFFCBDB901F029F89748C068C468A0
:1044C000201DFEF7C7FE91480068401E8F49086016
:1044D00092480068401E9149086001F026F8204685
:1044E000FFF7BDFB00BF8D4800680028D7D170BD25
:1044F00000BFFFF7D2FF7F4800680128F9D94FF0CD
:10450000805081490860BFF34F8FBFF36F8FF0E792
:104510001CB5834800210B468022CDE9001081A103
:104520008248FFF757FB0446012C02D100F029FF17
:104530000446012C16D100BFBF2080F31188BFF3C1
:104540004F8FBFF36F8F00BF4FF0FF307849086087
:1045500001206B49086000207649086076490860B0
:1045600000F0BEFF1CBD10B500BFBF2080F3118856
:10457000BFF34F8FBFF36F8F00BF0020604908600B
:1045800000F0C3FF10BD6B49086870470021694AFD
:10459000106870475D4800687047014611B9594876
:1045A000006800E00846024602F134007047024607
:1045B000002101E0521C491C1078A528FAD0890876
:1045C00088B270472DE9F04107460C4690461E46DA
:1045D00017B94C48006800E038460546256005F1EB
:1045E00034006060E86A2061286BE061686CA0605C
:1045F000207B032807D1FFF7D8FCA86A08B1022066
:104600002073FFF706FCE86C6061686DA061052E01
:1046100001D0267303E03846FFF719FD2073B8F187
:10462000000F04D0286BFFF7C2FF208401E00020B8
:104630002084BDE8F0812DE9F04707460C469046FE
:104640000026206848B3204641684968416000F16F
:10465000080142688A4202D1416849684160416864
:10466000D1F80C9000BF204641684968416000F1D4
:10467000080142688A4202D1416849684160416844
:10468000CD6806EBC60007EB8001434601222846B1
:10469000FFF798FF761C4D45E5D13046BDE8F08721
:1046A0002DE9F04105468846164600240527FFF708
:1046B0007CFC16480068804562D300BF7F1E07EB74
:1046C00087020C4B03EB820104EBC40205EB820072
:1046D0000122FFF7B0FF0444002FEFD104EBC40127
:1046E00005EB8100022215490968FFF7A4FF044485
:1046F00026E000001802002050000020CC0200201C
:10470000540000204000002004ED00E0480000209C
:10471000A402002070000020B80200204400002005
:104720006C00002049444C4500000000F1440008A2
:10473000680000204C000020080000207C000020C1
:1047400004EBC40105EB81000222FE490968FFF772
:1047500072FF044404EBC40105EB81000422FA4912
:10476000FFF769FF044404EBC40105EB8100032259
:10477000F649FFF760FF044416B1F5480068306061
:10478000FFF747FB2046BDE8F08170B505460C46B3
:10479000F048016818312846FEF742FD0121204605
:1047A000FFF7C5FB70BD70B506460C46154644F0D4
:1047B0000040E84909688861E648016818313046D8
:1047C000FEF722FD01212846FFF7B1FB70BD70B551
:1047D00006460D461446DF48016818313046FEF79C
:1047E00013FD0CB14FF0FF3521462846FFF79FFB24
:1047F00070BD70B50646F068C46804F11800FEF795
:1048000029FDD5480068A8B9201DFEF723FD94F8BE
:104810002C1001208840D14909680843CF4908601D
:10482000E16A01EB8101CE4A02EB8100211DFEF716
:10483000EBFC04E004F11801CA48FEF7E5FCC549A9
:10484000E06A0968C96A884204D901250120C6497D
:10485000086000E00025284670BD2DE9F0410546BE
:104860000F4647F000402860EC682846FEF7F2FC4F
:10487000201DFEF7EFFC94F82C1001208840B7496A
:1048800009680843B5490860E16A01EB8101B44A4F
:1048900002EB8100211DFEF7B7FCAE49E06A096812
:1048A000C96A884204D901260120AF49086000E0A6
:1048B00000263046BDE8F081AC4909680160AC498A
:1048C00009684160704770B504460D4600F01EFE51
:1048D000A74802682868401C01D1002619E0A349B6
:1048E00020680968884204D06068904201D8012697
:1048F0000FE06068101A2968884209D22868616848
:10490000511A401A28602046FFF7D6FF002600E023
:10491000012600F00AFE304670BD01209249086071
:104920007047014611B10A46906C00E000207047C4
:1049300008B10246916470478649086870478D49FE
:10494000096809B9012005E08349096809B902200D
:1049500000E00020704770B505462C46002D4BD076
:104960007C49E06A0968C96A884245D2A06910F0AA
:10497000004F05D177480068C06AC0F10500A0610A
:10498000E16A01EB8101764A02EB810160698842AC
:1049900001D1012000E0002050B3201DFEF75AFC99
:1049A00078B9E06A00EB80006D4951F8200040B909
:1049B00094F82C10012088406849096881436748B1
:1049C000016064480068C06AE06294F82C1001201D
:1049D000884062490968084360490860E16A01EB60
:1049E00081015F4A02EB8100211DFEF70DFC03E00F
:1049F00058480068C06AE06270BD70B505462C4634
:104A00000026ADB3206D401E2065E16CE06A88424F
:104A10002ED0206D60BB201DFEF71CFC78B9E06A2B
:104A200000EB80004E4951F8200040B994F82C105A
:104A30000120884049490968814348480160E06C89
:104A4000E062E06AC0F10500A06194F82C1001203A
:104A5000884042490968084340490860E16A01EB1F
:104A600081013F4A02EB8100211DFEF7CDFB0126AB
:104A7000304670BD70B505460E46314628460EF0EC
:104A80001DFE28460EF0F8FD044602E020202855C1
:104A9000641C0F2CFAD300202855281970BD7FB54F
:104AA00005460020287034480068039032490968A0
:104AB00001EBC101880000F0C6FD0446002C70D057
:104AC000002220460399FFF7EBFD0390002002909F
:104AD00060E0029800EBC00004EB8000007B01283E
:104AE00006D0022806D0032806D0042808D105E005
:104AF000522607E0422605E0532603E0442601E063
:104B0000002600BF00BF029800EBC00004EB80004D
:104B100041682846FFF7AEFF0546029800EBC0004B
:104B200004EB80008068029901EBC10104EB810174
:104B3000098CCDE90010029800EBC00004EB800066
:104B400032461BE080000020B8020020CC0200208A
:104B500008000020400000207000002050000020CD
:104B600018020020A40200205C0000206000002049
:104B70004C0000205400002048000020FEA10369E2
:104B800028460FF0D3F928460EF076FD054402982A
:104B9000401C0290DDE9020188429AD3204600F0D1
:104BA000AFFD7FBDFEB5054600202870F6480068C1
:104BB0000290F549096801EBC101880000F043FD4E
:104BC0000446002C48D06A4620460299FFF768FD4B
:104BD000029064210098B0FBF1F00090009800284A
:104BE00037D00020019030E0019800EBC00004EBCA
:104BF000800080690099B0FBF1F6019800EBC000DD
:104C000004EB800041682846FFF734FF05465EB19B
:104C1000019800EBC00004EB80003346DBA1826901
:104C200028460FF083F909E0019800EBC00004EB7F
:104C30008000D9A1826928460FF078F928460EF045
:104C40001BFD05440198401C0190DDE901018842EB
:104C5000CAD3204600F054FDFEBDD24909688869D8
:104C6000D0490968C96AC1F10501CE4A126891614B
:104C70007047CC48006830B1CA49096801F150005A
:104C8000096D491C0160C7480068704770B5064649
:104C90000D4600F03BFCC3480068806D88B90120D8
:104CA000C049096881F85C005DB101212846FFF721
:104CB0003EF94FF08050BC490860BFF34F8FBFF3FF
:104CC0006F8F00F032FC00F021FCB6480068846D64
:104CD0004CB126B10020B3490968886503E0601E25
:104CE000B049096888650020AE49096881F85C0010
:104CF00000F01BFC204670BD2DE9F04107468846B8
:104D000014461D4600F002FCA648006890F85C00BE
:104D1000022818D0A349096801F15800896DB943E8
:104D2000016001209F49096881F85C005DB10121A3
:104D30002846FFF7FCF84FF080509B490860BFF30E
:104D40004F8FBFF36F8F00F0F0FB00F0DFFB1CB163
:104D500094480068806D20609248006890F85C007C
:104D6000012801D1002608E08E49096801F15800A8
:104D7000896D21EA0801016001260020894909683E
:104D800081F85C0000F0D1FB3046BDE8F0812DE9F0
:104D9000F04781460D4616461F464FF0010A4C4625
:104DA00000F0B4FB0FB1A06D386094F85C80022075
:104DB00084F85C00052E17D2DFE806F01503070B18
:104DC0000D00A06D2843A0650EE0A06D401CA065FD
:104DD0000AE0A56508E0B8F1020F01D0A56501E081
:104DE0004FF0000A00E000BF00BFB8F1010F22D170
:104DF000201DFEF72FFA94F82C10012088406B49F3
:104E00000968084369490860E16A01EB8101684A61
:104E100002EB8100211DFEF7F7F96249E06A09689B
:104E2000C96A884207D94FF080505F490860BFF3D4
:104E30004F8FBFF36F8F00F078FB5046BDE8F087CF
:104E40002DE9F84F83460D4616461F46DDF828A08B
:104E5000012000905C4600BFBF21EFF3118081F379
:104E60001188BFF34F8FBFF36F8F00BF81460FB123
:104E7000A06D386094F85C80022084F85C00052EF8
:104E800017D2DFE806F01503070B0D00A06D2843CD
:104E9000A0650EE0A06D401CA0650AE0A56508E0D5
:104EA000B8F1020F01D0A56501E00020009000E0FC
:104EB00000BF00BFB8F1010F2DD13E480068A8B96E
:104EC000201DFEF7C7F994F82C10012088403749BF
:104ED0000968084335490860E16A01EB8101344AF9
:104EE00002EB8100211DFEF78FF904E004F11801A7
:104EF0003148FEF789F92B49E06A0968C96A884296
:104F000009D9BAF1000F03D00120CAF8000002E06D
:104F100001202A49086000BF89F3118800BF00986A
:104F2000BDE8F88F2DE9F04105460E462C4600BF3E
:104F3000BF21EFF3118081F31188BFF34F8FBFF3CF
:104F40006F8F00BF074694F85C80022084F85C00F5
:104F5000A06D401CA065B8F1010F50D11548006844
:104F600070BB201DFEF776F994F82C1001208840C4
:104F70000E490968084324E00925630925750925B8
:104F8000750925750D0A00004800002009257509DE
:104F900009257525250D0A0009257509093C3125C6
:104FA000250D0A004000002004ED00E05000002024
:104FB0001802002070000020A40200205C000020E5
:104FC0000BE01E490860E16A01EB81011C4A02EB1B
:104FD0008100211DFEF718F904E004F118011948B9
:104FE000FEF712F91849E06A0968C96A884206D9C9
:104FF00016B10120306002E001201449086000BFB2
:1050000087F3118800BFBDE8F08170B5054615B97A
:105010000D48006800E02846064600F077FA96F84A
:105020005C00022804D1002086F85C00012400E026
:10503000002400F07AFA204670BD000050000020E5
:1050400018020020A4020020400000205C00002084
:105050002DE9F04104460D4616461F464FF0000864
:1050600065602461B5420CD8F01BA169884202D367
:105070004FF0010811E0211DF8480068FEF7D0F854
:105080000BE0BE4204D2BD4202D34FF0010804E05F
:10509000211DF3480068FEF7C3F84046BDE8F081E3
:1050A0002DE9FE4305460C4616461F46DDF82880CE
:1050B0004FF00009EB48006810B300940196029588
:1050C000062C15DAFFF73BFC022808D100234246E4
:1050D0006946E4480068FEF7CBF9814610E00023FA
:1050E0001A466946DF480068FEF7C2F9814607E0C4
:1050F00000233A466946DB480068FEF76FFB8146AD
:105100004846BDE8FE832DE9F84326E0D448006810
:10511000C0680568D2480068C068C468201DFEF7F2
:1051200099F82046616A8847E069012815D1A0698D
:105130004619AE4207D966602461211DC84800683F
:10514000FEF76EF809E0002003462A46014600906B
:105150002046FFF7A5FF804600BFC14800680068F1
:1051600008B9012000E000200028CFD0BC48076823
:10517000BA480068BA490860B8480760BDE8F883D3
:1051800070B50446FFF7FFF90546B7480068854249
:1051900004D2FFF7B8FF0120206001E0002020606A
:1051A000B1480560284670BD70B586B04DE00398E3
:1051B00000284ADB059C606908B9012000E0002056
:1051C00010B9201DFEF746F802A8FFF7D9FF0546E3
:1051D00003980A2837D2DFE800F0090507252732AF
:1051E0000608262800BF00BF00BF00BF0498A269C0
:1051F000811803462A462046FFF72AFF88B1204639
:10520000616A8847E06901280BD10020009004986A
:10521000A1694218002319462046FFF741FF0646C0
:1052200000BF11E000BF0FE000BF0498A061A069BB
:1052300041192B462A462046FFF70AFF04E0204684
:1052400000F05EFA00E000BF00BF00231A4603A989
:1052500084480068FEF7EDF90028A8D106B070BDBB
:10526000F8B505460E467E480068C068C468201D33
:10527000FDF7F0FFE069012811D1A06941192B4623
:1052800032462046FFF7E4FE48B1002003462A4696
:10529000014600902046FFF703FF074600BF204667
:1052A000616A8847F8BDF8B505460C46FEF77DFEF5
:1052B0006846FFF765FF0646009820BB44B9B54233
:1052C00006D8FEF7A6FD31462846FFF7C9FF1CE0C9
:1052D0003CB162480068006808B9012000E0002085
:1052E0000446A91B22465F480068FEF794FBFEF7C0
:1052F00090FD50B94FF080505C490860BFF34F8F6C
:10530000BFF36F8F01E0FEF784FDF8BD0146544AFC
:10531000126812680AB9012200E000220A600A68D5
:1053200022B94F4A1268D268106800E00020704726
:1053300008B500BF6846FFF7E9FF0446204600991C
:10534000FFF7B1FFFFF730FFF4E710B500F0DEF82C
:105350004448006890B94648FDF746FF4548FDF7C8
:1053600043FF43483E49086042483C4908600022E8
:105370000C210A20FDF7D4FF3A49086000F0D5F867
:1053800010BD1CB50024FFF7E0FF3648006850B19F
:10539000394802210023CA01CDE9001037A139485C
:1053A000FEF718FC044620461CBD2DE9F0470546D3
:1053B0000E4617469846DDE908945CB1FFF7C5FF35
:1053C0002560A661E761C4F82080C4F82490201D00
:1053D000FDF717FFBDE8F0872DE9FC4705460E46AF
:1053E00017469846DDF828902C2000F02CF904464A
:1053F0003CB143463A4631462846CDE90094FFF792
:10540000D4FF2046BDE8FC871B4800687047014672
:105410000A469069704701460A465068704701463F
:105420000A461068704770B50446264600F06EF8CC
:10543000706908B9012000E0002080F0010500F04B
:1054400074F8284670BD70B50446264600F05EF834
:10545000356A00F06AF8284670BD0000940000200C
:1054600090000020840000208C00002004ED00E06B
:10547000E0020020F402002088000020546D722019
:10548000537663003153000870B504460D46264636
:1054900000F03CF8356200F048F870BD00BFBF2056
:1054A00080F31188BFF34F8FBFF36F8F00BF00BF32
:1054B000FEE7001F4FF080730360001F21F001031F
:1054C0000360001F2C4B03601438026020387047C3
:1054D0004FF223404FF0E0214861072008617047F8
:1054E00010B52648006840F47F002449086008464B
:1054F000006840F07F400860FFF7EAFF0020204985
:105500000860FAF741FE002010BD704700BFBF20C1
:1055100080F31188BFF34F8FBFF36F8F00BF184820
:105520000068401C16490860704715480068401E16
:10553000134908600846006820B9002080F31188EC
:1055400000BF00BF704710B500BFBF2080F31188B7
:10555000BFF34F8FBFF36F8F00BFFEF7DCFB20B1AF
:105560004FF0805005491C39086000BF002080F3CF
:10557000118800BF10BD00009D54000820ED00E020
:105580009800002010B50146714800E000680368EB
:105590008B42FBD30246436813448B4204D14368D9
:1055A0004C682344436001460A464B681344046830
:1055B000A34211D1674C03682468A34208D04B680A
:1055C0000468646823444B6003681B680B6005E053
:1055D000604B1B680B6001E003680B60884200D0E1
:1055E000016010BD30B54FF4F0435B4810F0070F79
:1055F00005D0C01D20F00700574C041B1B1B0246A2
:10560000534C22600024524D6C60D018083820F0B2
:105610000700504C206000244E4D2D686C604D4DAD
:105620002D682C601146441A4C604A4C24680C606A
:105630004A4D4C682C604A4D4C682C604FF0004439
:10564000484D2C6030BD2DE9F04105464FF0000873
:10565000FEF7ABFC3F48006808B9FFF7C3FF4148BD
:105660000068054247D145B1083515F0070F04D051
:1056700005F00700C0F108000544002D3BD0384874
:105680000068854237D8324E3046046801E026462D
:1056900024686068A84202D220680028F7D12D480B
:1056A0000068844227D0306800F108082068306024
:1056B0006068401B102807D967196068401B786034
:1056C00065603846FFF75EFF254960680968081A7B
:1056D000234908600846006820490968884203D2C7
:1056E0001F4800681D4908601E4960680968084332
:1056F000606000202060FEF78CFB4046BDE8F08132
:1057000070B506463546D6B1083D2C461549606849
:105710000968084213D0206888B91249606809688E
:1057200088436060FEF741FC0D49606809680844E1
:105730000B4908602046FFF725FFFEF76AFB70BDA6
:1057400007480068704705480068704770470000C8
:10575000AC0000209C00002008030020A4000020D2
:10576000A0000020A800002010B501218803FCF74C
:105770009EFA00214FF48040FCF799FA10BD01B564
:1057800081B0002000900198009002E00098401E37
:10579000009000980028F9D10CBD38B503460C469E
:1057A000002100200090F948016901F01C014FF42C
:1057B000784000EAC32001434FF4F86000EA841007
:1057C000014341F0020141F00101F04842610161F1
:1057D00000BF0098401C0090EC48016911F0010FD7
:1057E00003D0EB4D0098A842F3D3E94D0098A842AE
:1057F00001D1002038BD0120FCE708B502460B4668
:10580000002100200090E148016901F01C014FF4E3
:10581000784000EAC22001434FF4F86000EA8310A8
:10582000014321F0020141F00101D84801614069C2
:1058300080B208BD2DE9F04188B004460F464FF014
:105840000008002500200790D24E0190CF4805693E
:1058500025F01C0502A8FCF72BF9039ECE488642D2
:1058600005D3CE48864202D245F0080509E0CB4870
:10587000864205D3C748864202D245F00C0500E0B7
:1058800000BFC24805614FF4004200213846FFF7CF
:1058900084FF18B9002008B0BDE8F081C048FFF7C8
:1058A0006EFF2068002844D000BF0198401C019082
:1058B00001213846FFF7A1FF10F0040F03D1B449CE
:1058C00001988842F1D300BF002001904FF480522C
:1058D00000213846FFF761FF08B90020DBE700BF71
:1058E0000198401C019001213846FFF786FF10F017
:1058F000200F03D1A64901988842F1D300BF0020B0
:10590000019010213846FFF778FF804618F0040F09
:1059100003D04FF40060206201E00020206218F004
:10592000020F02D00020606116E04FF480406061F9
:1059300012E0206AC0F3CF006169C1F34F0140EA71
:10594000010200213846FFF728FF08B90020A2E72E
:105950006FF07F40FFF713FF8C48056891480540C2
:10596000D4E901010843E1680843216908436169FA
:105970000843A1690843E1690843216A0843616A51
:105980000843A16A0843E16A0843216B0843616B3D
:10599000084305437D480560D4E90E010843216CA6
:1059A0000843616C0843A16C0843E16C0843216D16
:1059B0000843616D084375494860A06D8860E06DDB
:1059C000C860084685694FF641700540B4F860101C
:1059D000606E40EA0140A16E0843E16E0843216F0A
:1059E0000843616F0843054368488561D4E91E0197
:1059F00008436649C8616C4885696C480540D4E92C
:105A000020010843D4F888100843D4F88C100843C8
:105A1000D4F890100843D4F894100843D4F89810A0
:105A20000843D4F89C100843D4F8A0100843054359
:105A30005D488561D4E929010843D4F8AC100843D6
:105A4000D4F8B0100843D4F8B41040EA8100D4F878
:105A5000B810084340F400005349086001201AE7D9
:105A60000021016041608160C1600161416181612B
:105A7000C161016241628162C1620163416381630C
:105A8000C163402101642021416400218164C1641B
:105A9000016541658165C16501668021416600211E
:105AA0008166C166016741678167C1674FF08061A8
:105AB000C0F880104910C0F884104910C0F8881050
:105AC000C910C0F88C100021C0F89010C0F89410D4
:105AD000C0F89810C0F89C10C0F8A0104FF00071EA
